:100000000C9401040C9432040C9432040C943204C9
:100010000C9432040C9432040C9432040C94320488
:100020000C9432040C9432040C9432040C94320478
:100030000C9432040C9432040C9432040C94320468
:100040000C9432040C9432040C9432040C94320458
:100050000C9432040C9432040C9432040C94070F68
:100060000C9432040C94F5120C94E5130C943204A5
:100070000C9432040C9432040C9432040C94320428
:100080000C9432040C9432040C9432040C94320418
:100090000C9429130C9424140C9432040C94320400
:1000A0000C9432040C9432040C9432040C943204F8
:1000B0000C9432040C9432040C9432040C943204E8
:1000C0000C9432040C9432040C9432040C945D139E
:1000D0000C9463140C9432040C9491130C94A21499
:1000E0000C9432045010531046104A108A105710C6
:1000F0005B106110651069106F10731077108A1013
:100100007D10811085100C9433120C9420110C94E6
:10011000DF210C9473170C9441120C94E7200C947B
:10012000E31C0C94531D0C94BC1C0C946F100C9489
:1001300053100C9457100C94191D0C9465100C94CA
:1001400050100C9469100C945A220C94A4170C941F
:1001500081100C9485100C9446100C942D180C945E
:1001600087170C9469150C9472190C94CA160C9488
:10017000B11C0C944A100C9477100C947B170C94BF
:100180008D1D0C946D120C9473100C948A100C94A9
:1001900012190C9498120C947E180C945B100C9409
:1001A000E9170C94BE1B0C9474170C94CB1D0C9483
:1001B000D01C0C9461100C9493170C949B200C94FD
:1001C000C4130C9419070C9451120C949C180C94A1
:1001D0008D120C94A3170C9471190C947D100000CF
:1001E000090A02080B0C0D070603040100000000B9
:1001F00000000000000000000000000000000000FF
:100200000000000000000000000011100F000000BE
:1002100000000000000000000000000000000000DE
:1002200000000000010210202008081020401020CB
:1002300040800201020108040201010204081020AA
:1002400040808040201008040201800402018040A8
:100250002010080402010804020101020408102011
:1002600040800102040810204080050505050705AF
:1002700008080808020202020A0A08080404040422
:10028000010101010101010103030303030303034E
:10029000040707070C0C0C0C0C0C0C0C02020202DD
:1002A00006060606060606060B0B0B0B0B0B0B0BC6
:1002B000000020002300260029002C002F0032001F
:1002C00000010000030106010901000022002500D1
:1002D00028002B002E00310034000201000005012F
:1002E00008010B0100002100240027002A002D0036
:1002F0003000330001010000040107010A01000081
:100300000000003E5B4F5B3E3E6B4F6B3E1C3E7CF5
:100310003E1C183C7E3C181C577D571C1C5E7F5EA3
:100320001C00183C1800FFE7C3E7FF001824180062
:10033000FFE7DBE7FF30483A060E262979292640F9
:100340007F050507407F05253F5A3CE73C5A7F3E25
:100350001C1C08081C1C3E7F14227F22145F5F00B7
:100360005F5F06097F017F006689956A6060606053
:100370006094A2FFA29408047E040810207E20103E
:1003800008082A1C08081C2A08081E101010100C47
:100390001E0C1E0C30383E3830060E3E0E06000095
:1003A00000000000005F00000007000700147F1439
:1003B0007F14242A7F2A12231308646236495620A8
:1003C000500008070300001C2241000041221C00CD
:1003D0002A1C7F1C2A08083E08080080703000088C
:1003E00008080808000060600020100804023E5160
:1003F00049453E00427F40007249494946214149F2
:100400004D331814127F1027454545393C4A494958
:100410003141211109073649494936464949291EC2
:1004200000001400000040340000000814224114B1
:1004300014141414004122140802015909063E4103
:100440005D594E7C1211127C7F494949363E41412B
:1004500041227F4141413E7F494949417F09090984
:10046000013E414151737F0808087F00417F4100F0
:100470002040413F017F081422417F404040407F9F
:10048000021C027F7F0408107F3E4141413E7F09EC
:100490000909063E4151215E7F091929462649492D
:1004A000493203017F01033F4040403F1F2040206D
:1004B0001F3F4038403F631408146303047804036B
:1004C0006159494D43007F41414102040810200019
:1004D0004141417F0402010204404040404000038A
:1004E00007080020545478407F2844443838444456
:1004F0004428384444287F385454541800087E094E
:100500000218A4A49C787F0804047800447D40006D
:100510002040403D007F1028440000417F40007C87
:10052000047804787C080404783844444438FC187F
:1005300024241818242418FC7C0804040848545463
:10054000542404043F44243C4040207C1C20402090
:100550001C3C4030403C44281028444C9090907CF7
:100560004464544C44000836410000007700000009
:100570004136080002010204023C2623263C1EA14B
:10058000A161123A4040207A3854545559215555AA
:100590007941225454784221555478402054557959
:1005A000400C1E52721239555555593954545459EC
:1005B00039555454580000457C410002457D4200A5
:1005C00001457C407D1211127DF0282528F07C54D5
:1005D0005545002054547C547C0A097F49324949CE
:1005E00049323A4444443A324A4848303A41412137
:1005F0007A3A42402078009DA0A07D3D4242423D93
:100600003D4040403D3C24FF2424487E4943662B26
:100610002FFC2F2BFF0929F620C0887E09032054C8
:100620005479410000447D413048484A32384040C6
:10063000227A007A0A0A727D0D19317D2629292F26
:1006400028262929292630484D402038080808083E
:1006500008080808382F10C8ACBA2F102834FA0040
:10066000007B000008142A142222142A14085500C2
:10067000550055AA55AA55AAFF55FF55FF00000081
:10068000FF00101010FF00141414FF001010FF00E2
:10069000FF1010F010F0141414FC001414F700FFF5
:1006A0000000FF00FF1414F404FC141417101F10B2
:1006B000101F101F1414141F00101010F000000061
:1006C000001F101010101F10101010F0100000006C
:1006D000FF101010101010101010FF10000000FF7D
:1006E000140000FF00FF00001F10170000FC04F4BE
:1006F00014141710171414F404F40000FF00F71476
:10070000141414141414F700F714141417141010FC
:100710001F101F141414F4141010F010F000001F18
:10072000101F0000001F14000000FC140000F01057
:10073000F01010FF10FF141414FF141010101F00FD
:10074000000000F010FFFFFFFFFFF0F0F0F0F0FFFF
:10075000FFFF0000000000FFFF0F0F0F0F0F3844D6
:10076000443844FC4A4A4A347E02020606027E02AB
:100770007E0263554941633844443C04407E201E58
:100780002006027E020299A5E7A5991C2A492A1C87
:100790004C7201724C304A4D4D303048784830BC74
:1007A000625A463D3E494949007E0101017E2A2A9E
:1007B0002A2A2A44445F444440514A444040444A1F
:1007C00051400000FF0103E080FF000008086B6B50
:1007D000083612362436060F090F060000181800D6
:1007E00000001010003040FF0101001F01011E0039
:1007F000191D1712003C3C3C3C000000000019078A
:10080000691511241FBECFEFD1E2DEBFCDBF00E0DE
:100810000CBF13E0A0E0B2E0EAECF7E400E00BBFAD
:1008200002C007900D92A836B107D9F726E0A8E6D6
:10083000B3E001C01D92AE38B207E1F713E0C1E0AA
:10084000D4E000E006C021970109802FFE010E943C
:10085000AA23CF3FD10780E00807A9F70E943412EE
:100860000C9456230C9400000895CF93DF931F92AD
:100870001F92CDB7DEB70E94B20F40E855E260E0AC
:1008800070E08CE494E00E94E11440E050E0BA0192
:100890008AEA93E00E94A51E63E172E08CE494E092
:1008A0000E947A116FEF8AEA93E00E949B2061E038
:1008B0008AEA93E00E94A61C60E070E08AEA93E076
:1008C0000E947E1887E00E9414100E943B160E942E
:1008D000EB066C010E94BD065C0160E089E00E94AD
:1008E0008B1061E089E00E94C71061E082E00E9405
:1008F0008B10612C712C85E0882E912C6114710471
:1009000091F4109269031092680310926D03109293
:100910006C0390926B0380926A03C6010E94E60901
:100920007C0101E010E081E0E816F104D1F40E94BE
:10093000930789839A830E94D70AA801B501898108
:100940009A810E94080D3C0181E06816710411F43F
:100950000F5F1F4F053F81E0180784F2612C712C57
:10096000CDCF82E0E816F10449F60E942007C6CFF9
:100970004EE450E060E270E08AEA93E00E94941C4A
:1009800060E078EF8AEA93E00E94A01C61E08AEAC6
:1009900093E00E949A1C67E172E08AEA93E00C946B
:1009A0007A114FE550E06EE170E08AEA93E00E9430
:1009B000941C60E078EF8AEA93E00E94A01C61E05A
:1009C0008AEA93E00E949A1C62E272E08AEA93E06B
:1009D0000C947A1161E08AEA93E00E949A1C60E02C
:1009E00070E08AEA93E00E94A01C40E050E064E6D8
:1009F00070E08AEA93E00E94941C60916803709111
:100A0000690380916C0390916D03680F791F6150A9
:100A100071094AE050E08AEA93E00E942C126FEFDD
:100A20007FEF8AEA93E00E94A01C40E050E064E679
:100A300070E08AEA93E00E94941C609168037091D0
:100A4000690380916C0390916D03680F791F4AE0F0
:100A500050E08AEA93E00C942C1261E08AEA93E079
:100A60000E949A1C60E070E08AEA93E00E94A01C59
:100A700040E050E063E270E08AEA93E00E94941C58
:100A800060916A0370916B036F5F7F4F4AE050E0A3
:100A90008AEA93E00E942C126FEF7FEF8AEA93E0DC
:100AA0000E94A01C40E050E063E270E08AEA93E01C
:100AB0000E94941C60916A0370916B034AE050E0BD
:100AC0008AEA93E00C942C124F925F926F927F927D
:100AD0008F929F92AF92BF92CF92DF92EF92FF924E
:100AE000CF93DF936C01EC0197FD2196D595C795C7
:100AF00028EE33E0DB010E94C9232B013C01812C4D
:100B0000912C54010D2C000CEE08FF088414950460
:100B1000A604B7049CF461E082E00E94C710CE01F5
:100B20000E94A80F60E082E00E94C710CE010E94E0
:100B3000A80F8C0C9D1CAE1CBF1CE8CFDF91CF9181
:100B4000FF90EF90DF90CF90BF90AF909F908F90ED
:100B50007F906F905F904F900895CF93DF93EC015B
:100B60008AEA93E00E94A91C97FD01969C013595A5
:100B70002795215031093D832C838AEA93E00E9416
:100B8000AD1C03979F838E838AEA93E00E94A91C81
:100B900097FD03969C0135952795359527953983C3
:100BA000288382E090E09B838A8319861886DF91F0
:100BB000CF910895FC0183E090E095838483DB016D
:100BC00014968D919C9115979183808316968D91A3
:100BD0009C9117970C979383828381E090E0978391
:100BE0008683918780870895EF92FF920F931F93DA
:100BF000CF93DF93EC01DB014C815D81CA0157FD8E
:100C0000019695958795EA81FB81E80FF91F31964A
:100C100012962D913C91139737FF02C02F5F3F4FE3
:100C20003595279516966D917C9117977B01E21A61
:100C3000F30AEE15FF05D1F5E881F98114966D915F
:100C40007C9115972D913C918E0F9F1F8B01015028
:100C50001109D90137FD1196B595A7957801EA1AC2
:100C6000FB0A8E159F0514F157FF02C04F5F5F4FBF
:100C700055954795E41BF50B6F5F7F4F37FF02C01B
:100C80002F5F3F4F35952795260F371F2E173F07AC
:100C90006CF08885998591958195910999878887C8
:100CA00062E370E088EB9BE00E9464058E819F8187
:100CB000892B21F481E090E09F838E83DF91CF9197
:100CC0001F910F91FF90EF9008950F931F93CF9373
:100CD000DF93EC018C819D8197FD01969595879519
:100CE00008811981080F191F8AEA93E00E94A91C44
:100CF00001970817190774F58C819D8197FD01965E
:100D00009595879528813981A901481B590BCA01FE
:100D100018161906FCF48C819D8197FD0196959516
:100D200087952A813B81A901481B590B4A305105FF
:100D3000FCF4888599859195819591099987888793
:100D400062E370E080ED97E0DF91CF911F910F910A
:100D50000C9464058E819F819195819591099F8363
:100D60008E8362E370E080ED97E00E946405D3CF4C
:100D7000DF91CF911F910F910895CF92DF92EF9263
:100D8000FF92CF93DF936AE070E080E090E00E94F2
:100D9000820FC2E3D0E0C12CD12C760181E00E9409
:100DA0001410092E000CAA0BBB0BC80ED91EEA1E8C
:100DB000FB1E219799F7C701B60122E330E040E01E
:100DC00050E00E948B23C901DF91CF91FF90EF90FB
:100DD000DF90CF900895CF92DF92EF92FF92CF9362
:100DE000DF936AE070E080E090E00E94820FC2E34F
:100DF000D0E0C12CD12C760180E00E941410092E85
:100E0000000CAA0BBB0BC80ED91EEA1EFB1E2197B5
:100E100099F7C701B60122E330E040E050E00E94BC
:100E20008B23C901DF91CF91FF90EF90DF90CF909E
:100E300008952FEF47E066E08AEA93E00C94E41D02
:100E40006FEF77E08AEA93E00E947E1861E08AEA19
:100E500093E00E949A1C4AE050E062E070E08AEA67
:100E600093E00E94941C6EE272E08AEA93E00E9492
:100E70007A1189E00E94F710892BD9F764E670E0B7
:100E800080E090E00C94820FAF92BF92CF92DF92FD
:100E9000EF92FF920F931F93CF93DF93662369F036
:100EA000613081F0623091F06F3F99F4AA24AA94E6
:100EB000BA2CEE24EA94FE2C0EC030EEA32E37E0BE
:100EC000B32E07C02FE1A22EB12C03C0A12C98EFA6
:100ED000B92EE12CF12CC82ED12CC72FD0E009E07F
:100EE00010E020E230E0A601BE018AEA93E00E9411
:100EF0008D1DA6014E5F5F4FBE016E5F7F4F750176
:100F000005E010E02CE130E08AEA93E00E948D1DBC
:100F1000DF91CF911F910F91FF90EF90DF90CF90D5
:100F2000BF90AF9008952F923F924F925F926F9231
:100F30007F928F929F92AF92BF92CF92DF92EF9269
:100F4000FF920F931F93CF93DF93CDB7DEB76D97CB
:100F50000FB6F894DEBF0FBECDBF6FEF7FEF8AEA0A
:100F600093E00E947E1886E0E5E0F2E0DE011F9645
:100F700001900D928A95E1F729E02F8BC12CB4E105
:100F8000EB2EF12C13E0412E512C612C712C1A8682
:100F900019861C861B861E861D8634E0E316F10426
:100FA00064F024E030E040E050E061E070E080E098
:100FB00090E00E9467168B0101C08701E01AF10AD8
:100FC0005801A114B10441F12FEF30E040E050E0AE
:100FD00060E070E0CB010E946716A30192010E94BD
:100FE0008B23FB01EE0FFF1F81E090E08C0F9D1F14
:100FF000E80FF91F868597851816190614F72085BE
:1010000031852F5F3F4F31872087019797878687EC
:1010100091E0A91AB108D5CFEBE0F2E0DE0111961C
:1010200088E001900D928A95E1F7DE011196BE8B62
:10103000AD8B812C912C54010115110509F481C04F
:1010400024E030E040E050E0C501B4010E946716A2
:10105000ED89FE89F98FE88F20803180AB01440F44
:10106000551FA1E0B0E0AC0FBD1FA40FB51F2D911F
:101070003C91119721933193FE8BED8B2D923C92F5
:10108000A88DB98D8D919C91FC0175E0EE0FFF1F2D
:101090007A95E1F7F98FE88F180101E010E0DC2C78
:1010A000D20CCD2CC2180115110509F443C02FEF45
:1010B00030E040E050E060E070E0CB010E94671655
:1010C000A30192010E948B23CB01880F991FE1E0BD
:1010D000F0E0EC0FFD1FE80FF91F9F01285F3F4F65
:1010E0003B8F2A8F2085318512161306E4F6EC2DEE
:1010F000F0E0CF01880F991FE80FF91FE259FC4F6C
:101100006083888D81839F899283608171818281D0
:101110002C8F3D8F0E9444072C8D3D8D215031092D
:10112000AA8DBB8D2D933C93B1E02B1A310800E0C2
:1011300010E0B7CFEFEF8E1A9E0AAE0ABE0A810109
:101140007BCFFF89F75FFF8BE114F10409F01FCF1C
:101150008EE693E06D960FB6F894DEBF0FBECDBF5E
:10116000DF91CF911F910F91FF90EF90DF90CF9083
:10117000BF90AF909F908F907F906F905F904F90B7
:101180003F902F9008950F931F93CF93DF93CDB788
:10119000DEB762970FB6F894DEBF0FBECDBF5FE03B
:1011A0005A8386E38B8392E099834FE24D838E834B
:1011B00031E03C832FE4288789871F825B8783E7A0
:1011C0008C871A864E878F873D87298B8A8B988BD1
:1011D00000E010E0F801EE0FFF1FE00FF11F81E0CB
:1011E00090E08C0F9D1FE80FF91F60817181828153
:1011F0000E9444070F5F1F4F0630110559F7629692
:101200000FB6F894DEBF0FBECDBFDF91CF911F9117
:101210000F9108956F927F928F929F92AF92BF929B
:10122000CF92DF92EF92FF920F931F93CF93DF93B2
:101230008C01EB017B018FEFE81AF80A4B01ACE35C
:101240008A0E911C888187FD87C06A8170E0F80151
:101250008281938124813581A90137FF02C04F5FCC
:101260005F4F559547955195419551096C01C40EB5
:10127000D51ED801ED91FC91DB011A96AC15BD0588
:1012800039F5D7018C9190E04E0F5F1FBC01605E75
:101290007F4F641775070CF45FC037FF02C02F5FE4
:1012A0003F4F359527952E0F3F1F281739070CF410
:1012B00053C062E370E088E893E10E946405F8019E
:1012C00080859185919581959109918780875BC0F3
:1012D00037FF02C02F5F3F4F35952795820F931F31
:1012E000DB011197A817B90761F4D7018C9190E041
:1012F0004E0F5F1FBC01605E7F4F6417750764F17E
:10130000D2CFD7016C90712C5301B1E2AB0EB11C5E
:101310004E0F5F1FA416B506C1F49B01275F3F4F18
:101320002C153D05CCF086179707B4F062E370E00A
:1013300088E893E10E946405F80186819781919580
:1013400081959109978386831EC0D30111972E0F33
:101350003F1FA217B30709F32396F3E0EF0EF11C2A
:10136000C815D90509F06ECFDF91CF911F910F916C
:10137000FF90EF90DF90CF90BF90AF909F908F90B5
:101380007F906F900895888187FDE6CF8150888394
:10139000688179818A810E94440780916C039091D1
:1013A0006D03019690936D0380936C03DF91CF9151
:1013B0001F910F91FF90EF90DF90CF90BF90AF9073
:1013C0009F908F907F906F900C94EA04AF92BF92A1
:1013D000CF92DF92EF92FF920F931F93CF93DF9301
:1013E000EC016FEF77E08AEA93E00E947E1842E119
:1013F00050E06CE070E08AEA93E00E94941C60E0A8
:1014000078EF8AEA93E00E94A01C62E08AEA93E007
:101410000E949A1C6EE372E08AEA93E00E947A11BD
:1014200060E070E08AEA93E00E94A01C61E08AEA32
:1014300093E00E949A1C42E850E068E270E08AEA79
:1014400093E00E94941C68E472E08AEA93E00E94B0
:101450007A114CE850E06DE070E08AEA93E00E9477
:10146000941C60E572E08AEA93E00E947A1146E9F2
:1014700050E062E270E08AEA93E00E94941C62E627
:1014800072E08AEA93E00E947A110E94B8040E94F6
:10149000D1040E94C3085E0182E3A80EB11CE2974A
:1014A000E12CF12C0DE010E021E430E04BE450E0C1
:1014B0006DE170E08AEA93E00E948D1D0E94B804FD
:1014C00089E00E94F7106C0180E00E941410A816B9
:1014D000B9060CF068C0EE24EA9497E0F92E0DE00E
:1014E00010E021E430E04BE450E06DE170E08AEA86
:1014F00093E00E948D1D0E94B804CD2811F1E12CCB
:10150000F12C0DE010E027E430E04CE550E06BE119
:1015100070E08AEA93E00E948D1D0E94D10462E38C
:1015200070E088E893E10E94640589E00E94F7106A
:101530006C0180E00E9414108C179D07B4F0CD2838
:10154000A1F7C2E0D0E064E670E080E090E00E94A5
:10155000820FCE01DF91CF911F910F91FF90EF90FD
:10156000DF90CF90BF90AF900895EE24EA9487E08B
:10157000F82E0DE010E027E430E04CE550E06BE1A0
:1015800070E08AEA93E00E948D1D0E94D104CD286C
:1015900019F4C1E0D0E0D7CF62E370E088E893E1CE
:1015A0000E9464057DCFCD2809F08ACFF2CFEF925B
:1015B000FF920F931F938AEA93E00E94A91CE12CEB
:1015C000F12C09E010E09C0140E050E060E070E0A8
:1015D0008AEA93E00E948D1D61E08AEA93E00E940E
:1015E0009A1C6FEF7FEF8AEA93E00E94A01C40E014
:1015F00050E060E070E08AEA93E00E94941C6DE69F
:1016000072E08AEA93E00E945D110E942D0540E09D
:1016100050E06CE370E08AEA93E00E94941C6FEF64
:1016200072E08AEA93E00E945D111F910F91FF9092
:10163000EF900C94EA04EF92FF920F931F93FC013A
:1016400024813581B90137FF02C06F5F7F4F7595E7
:10165000679571956195710942815381460F571FB6
:1016600080819181680F791F9FE1E92E98EFF92E13
:1016700089018AEA93E00E948D1D1F910F91FF90CE
:10168000EF900895EF92FF920F931F93FC01248136
:101690003581B90137FF02C06F5F7F4F7595679540
:1016A00071956195710942815381460F571F808161
:1016B0009181680F791FEE24EA94FE2C89018AEA51
:1016C00093E00E948D1D1F910F91FF90EF90089560
:1016D000EF92FF920F931F93CF93DF93CDB7DEB7B7
:1016E0002A970FB6F894DEBF0FBECDBF8C017A01EA
:1016F0008AE0F801DE01119601900D928A95E1F7DA
:10170000F8012081318186819781820F931F918317
:1017100080832281338180859185820F931F9383FB
:101720008283C8010E94F405C8010E946506B701C2
:10173000C8010E940A09CE0101960E94420BC8010D
:101740000E941B0B2A960FB6F894DEBF0FBECDBFCA
:10175000DF91CF911F910F91FF90EF900895EF923D
:10176000FF920F931F93FC0102811381208131812D
:10177000C80117FD01969595879546815781481BAD
:10178000590BB90137FF02C06F5F7F4F75956795A1
:1017900084819581FC01E61BF70BBF01E12CF12C44
:1017A0008AEA93E00E948D1D1F910F91FF90EF90A8
:1017B0000895EF92FF920F931F93FC010281138112
:1017C00020813181C80117FD019695958795468145
:1017D0005781481B590BB90137FF02C06F5F7F4F1C
:1017E0007595679584819581FC01E61BF70BBF0118
:1017F000EE24EA94FE2C8AEA93E00E948D1D1F914C
:101800000F91FF90EF900895AF92BF92CF92DF9229
:10181000EF92FF920F931F93CF93DF93EC016B0135
:1018200081E00E94141024EF33E07901EC18FD08E8
:101830000F2C000C000B110B222733272C193D090C
:10184000032E000C440B550B8C199D09BC01990FFC
:10185000880B990B1F921F921F92E4E0EF93ECEF1D
:10186000AE2EBB24BA94CB2CDB2C0E948916798730
:101870006887888199810F900F900F900F9097FD46
:101880000196959587950C811D81080F191F8AEA8D
:1018900093E00E94A91C0197081719072CF488856A
:1018A0009985181619069CF08881998197FD0196F3
:1018B000959587952C813D81A901481B590BCA013B
:1018C00018161906E4F48885998597FF18C0CE018B
:1018D0000E94D90B2C813D8188859985820F931FA9
:1018E0009D838C83CE01DF91CF911F910F91FF904B
:1018F000EF90DF90CF90BF90AF900C94AF0BDF9143
:10190000CF911F910F91FF90EF90DF90CF90BF90FC
:10191000AF9008959F92AF92BF92CF92DF92EF92D5
:10192000FF920F931F93CF93DF93EC016B015A014A
:10193000922E89E00E94F710892B19F0209709F464
:101940005BC08AEA93E00E94A91CE12CF12C09E01B
:1019500010E09C0140E050E060E070E08AEA93E033
:101960000E948D1D61E08AEA93E00E949A1C6FEF4D
:101970007FEF8AEA93E00E94A01C40E050E060E024
:1019800070E08AEA93E00E94941C219719F465E7BD
:1019900072E002C062E872E08AEA93E00E945D11A0
:1019A00068EC70E080E090E00E94820F89E00E9485
:1019B000F710892B71F081E09812F8CF64E170E0A4
:1019C00080E090E00E94820FB501C6010E94040CE5
:1019D000EDCF0E94D70A68EC70E080E090E0DF91E4
:1019E000CF911F910F91FF90EF90DF90CF90BF901C
:1019F000AF909F900C94820FDF91CF911F910F9128
:101A0000FF90EF90DF90CF90BF90AF909F900895A0
:101A10006F927F928F929F92AF92BF92CF92DF92FE
:101A2000EF92FF920F931F93CF93DF93CDB7DEB763
:101A300064970FB6F894DEBF0FBECDBF3C016B01BB
:101A40004A01CE0101960E94AD05CE0101960E9489
:101A5000AF0B21E0A601BE016F5F7F4F81E090E0F8
:101A60000E948A0CBE016F5F7F4FCE010B960E94D1
:101A7000DA05CE010B960E941B0B88E19CEF889E35
:101A80005001899EB00C989EB00C112480EEA81ACB
:101A90008EE5B80A20E0A601BE016F5F7F4F80E0AF
:101AA00090E00E948A0CA301BE016F5F7F4FCE01C0
:101AB0000B960E94680BC5010E94A80FB601CE01CB
:101AC00001960E94040C20916C0330916D0380916B
:101AD0006A0390916B032532310509F076C0181620
:101AE00019060CF072C08091680390916903859685
:101AF000909369038093680310926D0310926C03B6
:101B000061E08AEA93E00E94A61C61E08AEA93E021
:101B10000E949A1C60E070E08AEA93E00E94A01C98
:101B20006FEF7FEF8AEA93E00E947E184CE350E06B
:101B30006FE070E08AEA93E00E94941C85EF8816BB
:101B400081E09806FCF460E972E08AEA93E00E9482
:101B50005D1140E550E06EE070E08AEA93E00E949B
:101B6000941C63EA72E08AEA93E00E945D114AE500
:101B700050E062E370E08AEA93E00E94941C66EB16
:101B800072E002C06DEB72E08AEA93E00E945D11A0
:101B900044E650E064E170E08AEA93E00E94941C1D
:101BA00061ED72E08AEA93E00E945D1189E00E9493
:101BB000F710892B39F062E370E080E090E00E943A
:101BC000820FF4CF81E090E00DC102970CF48CC03D
:101BD0008F85988997FD0196959587950D851E852A
:101BE000080F191F8AEA93E00E94AD1C019708179D
:101BF00019070CF479C062E370E080E197E20E947B
:101C0000640580916A0390916B03019790936B0335
:101C100080936A030E942D05CE010B960E94420B11
:101C2000CE0101960E94AF0B60E08AEA93E00E9429
:101C3000A61C61E08AEA93E00E949A1C6FEF7FEF96
:101C40008AEA93E00E94A01C8AEA93E00E94A91C01
:101C5000E12CF12C09E010E09C0140E050E060E054
:101C600070E08AEA93E00E948D1D40E050E060E061
:101C700070E08AEA93E00E94941C60916A0370917C
:101C80006B034AE050E08AEA93E00E942C1262EE75
:101C900072E08AEA93E00E945D1164EF71E080E0F7
:101CA00090E00E94820F21E0A601BE016F5F7F4F8E
:101CB00081E090E00E948A0C0E94D70ABE016F5F0B
:101CC0007F4FCE010B960E94DA05CE010B960E9443
:101CD0001B0BCE0101960E94AF0B64E670E080E022
:101CE00090E00E94820FD6CE80916A0390916B03A0
:101CF000019709F0CFCE8F85988997FD019695952C
:101D000087950D851E85080F191F8AEA93E00E94AA
:101D1000AD1C0197081719070CF4BCCE80916A031B
:101D200090916B03019790936B0380936A030E94D9
:101D30002D0560E08AEA93E00E94A61C61E08AEA31
:101D400093E00E949A1C60E070E08AEA93E00E94AF
:101D5000A01C6FEF7FEF8AEA93E00E947E1846E4B2
:101D600050E068E270E08AEA93E00E94941C6EEE14
:101D700072E08AEA93E00E945D1140E550E069E17B
:101D800070E08AEA93E00E94941C69EF72E08AEAAC
:101D900093E00E945D1160916803709169038091E6
:101DA0006C0390916D03680F791F4AE050E08AEA56
:101DB00093E00E942C120E94510F6B0189E00E9457
:101DC000F710892B69F062E370E080E090E00E94F8
:101DD000820F0E94510F6C197D09683B7B4074F3A0
:101DE00080E090E064960FB6F894DEBF0FBECDBFE2
:101DF000DF91CF911F910F91FF90EF90DF90CF90E7
:101E0000BF90AF909F908F907F906F9008951F929A
:101E10000F920FB60F9211242F933F938F939F939E
:101E2000AF93BF938091DE039091DF03A091E00315
:101E3000B091E1033091DD0323E0230F2D3720F42F
:101E40000196A11DB11D05C026E8230F0296A11D14
:101E5000B11D2093DD038093DE039093DF03A093F5
:101E6000E003B093E1038091E2039091E303A0913A
:101E7000E403B091E5030196A11DB11D8093E20337
:101E80009093E303A093E403B093E503BF91AF9174
:101E90009F918F913F912F910F900FBE0F901F90A8
:101EA00018952FB7F8946091DE037091DF0380914D
:101EB000E0039091E1032FBF08953FB7F89480911C
:101EC000E2039091E303A091E403B091E50326B50A
:101ED000A89B05C02F3F19F00196A11DB11D3FBF62
:101EE000BA2FA92F982F8827820F911DA11DB11DF0
:101EF000BC01CD0142E0660F771F881F991F4A95EC
:101F0000D1F70895CF92DF92EF92FF92CF93DF93B4
:101F10006B017C010E945D0FEB01C114D104E1044F
:101F2000F10479F00E945D0F6C1B7D0B683E7340DD
:101F3000A0F381E0C81AD108E108F108C851DC4FCC
:101F4000ECCFDF91CF91FF90EF90DF90CF9008958D
:101F5000019739F0880F991F880F991F02970197F1
:101F6000F1F70895789484B5826084BD84B581606A
:101F700084BD85B5826085BD85B5816085BDEEE691
:101F8000F0E0808181608083E1E8F0E01082808170
:101F900082608083808181608083E0E8F0E08081DE
:101FA00081608083E1EBF0E0808184608083E0EBFE
:101FB000F0E0808181608083E1E9F0E080818260EF
:101FC0008083808181608083E0E9F0E080818160AE
:101FD0008083E1EAF0E0808182608083808181609B
:101FE0008083E0EAF0E0808181608083E1E2F1E0DB
:101FF000808182608083808181608083E0E2F1E083
:10200000808181608083EAE7F0E080818460808362
:10201000808182608083808181608083808180680C
:1020200080831092C1000895863308F08653909102
:102030007B00282F2870977F922B90937B008770CE
:102040002091040290E4299F90011124822B809317
:102050007C0080917A00806480937A0080917A007D
:1020600086FDFCCF809178002091790090E0922B42
:10207000089590E0FC013197E131F10508F04AC084
:102080008827EE58FF4F8F4F0C94AA238091800031
:102090008F7703C0809180008F7D809380000895AA
:1020A00084B58F7702C084B58F7D84BD08958091FB
:1020B000B0008F7703C08091B0008F7D8093B00017
:1020C0000895809190008F7707C0809190008F7D58
:1020D00003C080919000877F809390000895809145
:1020E000A0008F7707C08091A0008F7D03C08091F2
:1020F000A000877F8093A0000895809120018F77B2
:1021000007C0809120018F7D03C080912001877FCF
:10211000809320010895CF93DF9390E0FC01EC5D64
:10212000FD4F2491FC01E659FD4F8491882361F114
:1021300090E0880F991FFC01EC51FD4FC591D4919F
:10214000FC01E653FD4FA591B491611109C09FB701
:10215000F8948881209582238883EC912E230BC0EC
:10216000623061F49FB7F8943881822F8095832381
:102170008883EC912E2B2C939FBF06C08FB7F894C9
:10218000E8812E2B28838FBFDF91CF9108951F9375
:10219000CF93DF93282F30E0F901E252FE4F849174
:1021A000F901EC5DFD4FD491F901E659FD4FC49161
:1021B000CC23C9F0162F81110E943910EC2FF0E0CA
:1021C000EE0FFF1FE653FD4FA591B4918FB7F89422
:1021D000111105C09C91ED2FE095E92302C0EC910F
:1021E000ED2BEC938FBFDF91CF911F910895CF938B
:1021F000DF93282F30E0F901E252FE4F8491F9017C
:10220000EC5DFD4FD491F901E659FD4FC491CC230B
:1022100091F081110E943910EC2FF0E0EE0FFF1FBA
:10222000E055FD4FA591B491EC91ED2381E090E054
:1022300021F480E002C080E090E0DF91CF9108952A
:10224000CF92DF92EF92FF920F931F93CF93DF9382
:102250006C01EB017B01E40EF51E00E010E0CE15F1
:10226000DF0561F06991D601ED91FC910190F0815B
:10227000E02DC6011995080F191FF1CFC801DF9194
:10228000CF911F910F91FF90EF90DF90CF90089525
:102290006115710579F0FB0101900020E9F7319794
:1022A000AF01461B570BDC01ED91FC910280F381DD
:1022B000E02D199480E090E008950C944811DC0121
:1022C000ED91FC910190F081E02D19940F931F93F3
:1022D000CF93DF93EC016DE00E945F118C016AE007
:1022E000CE010E945F11800F911FDF91CF911F914E
:1022F0000F9108950F931F93CF93DF93EC010E94EA
:1023000048118C01CE010E946611800F911FDF9150
:10231000CF911F910F9108958F929F92AF92BF928C
:10232000CF92DF92EF92FF920F931F93CF93DF93A1
:10233000CDB7DEB7A1970FB6F894DEBF0FBECDBF05
:102340006C01142FE52FCB01022F19A2223008F4C3
:102350000AE07E0121E2E20EF11C802E912CA12CDC
:10236000B12C612F7E2FA50194010E946923029F49
:102370001019112481E0E81AF1081A3014F4105DE4
:1023800001C0195CF7011083122FE32FCA01232B20
:10239000242B252B31F7B701C6010E944811A196C5
:1023A0000FB6F894DEBF0FBECDBFDF91CF911F9166
:1023B0000F91FF90EF90DF90CF90BF90AF909F90E4
:1023C0008F900895CF92DF92EF92FF920F931F9319
:1023D000CF93DF93EC016A017B012115310579F47C
:1023E000E881F9810190F081E02D642FDF91CF9198
:1023F0001F910F91FF90EF90DF90CF9019942A30AA
:102400003105E9F477FF1AC06DE20E945F118C017B
:1024100044275527BA014C195D096E097F092AE046
:10242000CE010E948C11800F911FDF91CF911F91DF
:102430000F91FF90EF90DF90CF9008952AE0B701C1
:10244000A601CE01DF91CF911F910F91FF90EF90E8
:10245000DF90CF900C948C119A01AB01770F660B33
:10246000770B0C94E21108950E94B20F0E9435047C
:10247000C4ECD3E10E9434042097E1F30E94C4131A
:10248000F9CFFC0124853585F901E05CFF4F80819F
:102490009181329620813181821B930B8F73992712
:1024A0000895DC011C96ED91FC911D97DF01A05C65
:1024B000BF4F2D913C91119712968D919C91119740
:1024C0002817390739F08D919C91E80FF91F808109
:1024D00090E008958FEF9FEF0895FC01A485B585E6
:1024E000FD01E05CFF4F2081318132968081918136
:1024F0002817390779F080819181A80FB91F8C9135
:10250000208131812F5F3F4F2F7333273183208309
:1025100090E008958FEF9FEF0895FC0181A188233B
:1025200029F0A489B5898C9186FFFBCF11A208956B
:102530000F931F93CF93DF93FC01A685B7858D0181
:10254000005C1F4FE8018881998101968F7399275C
:10255000AD014E5B5F4FEA012881398182179307F5
:10256000D1F3E80128813981A20FB31F6C93A685AE
:10257000B785A05CBF4F11969C938E93A689B789AF
:102580002C9181E090E0078C02C0880F991F0A947B
:10259000E2F7822B8C9381E081A30488F589E02DFA
:1025A00080818064808381E090E0DF91CF911F91F2
:1025B0000F910895FB01E05CFF4F208131812F5F77
:1025C0003F4F2F733327DB01AE5BBF4F4D915C91C3
:1025D0002417350741F040815181DB01A40FB51F5D
:1025E0008C9331832083089508951F920F920FB624
:1025F0000F9211240BB60F922F933F934F935F933B
:102600006F937F938F939F93AF93BF93EF93FF93BA
:102610008091C00082FD07C08091C6006AE476E028
:102620000E94DA1202C08091C600FF91EF91BF9123
:10263000AF919F918F917F916F915F914F913F915A
:102640002F910F900BBE0F900FBE0F901F901895FB
:1026500008951F920F920FB60F9211240BB60F928E
:102660002F933F934F935F936F937F938F939F939A
:10267000AF93BF93EF93FF938091C80082FD07C093
:102680008091CE0062EC75E00E94DA1202C0809167
:10269000CE00FF91EF91BF91AF919F918F917F916C
:1026A0006F915F914F913F912F910F900BBE0F90C3
:1026B0000FBE0F901F90189508951F920F920FB69E
:1026C0000F9211240BB60F922F933F934F935F936A
:1026D0006F937F938F939F93AF93BF93EF93FF93EA
:1026E0008091D00082FD07C08091D6006AE375E03A
:1026F0000E94DA1202C08091D600FF91EF91BF9143
:10270000AF919F918F917F916F915F914F913F9189
:102710002F910F900BBE0F900FBE0F901F9018952A
:1027200008951F920F920FB60F9211240BB60F92BD
:102730002F933F934F935F936F937F938F939F93C9
:10274000AF93BF93EF93FF938091300182FD07C059
:102750008091360162EB74E00E94DA1202C080912F
:102760003601FF91EF91BF91AF919F918F917F9132
:102770006F915F914F913F912F910F900BBE0F90F2
:102780000FBE0F901F9018958CE494E00E944112A8
:10279000892B11F00E94F4128AE294E00E94411207
:1027A000892B11F00E94281388E094E00E944112C6
:1027B000892B11F00E945C1386EE93E00E94411277
:1027C000892B11F00C94901308951F920F920FB65D
:1027D0000F9211240BB60F922F933F938F939F93D9
:1027E000EF93FF932091460630914706809148066B
:1027F000909149062817390731F48091C1008F7DE7
:102800008093C10014C0E0914806F0914906EA5F48
:10281000F94F2081809148069091490601968F7367
:10282000992790934906809348062093C600FF910C
:10283000EF919F918F913F912F910F900BBE0F9031
:102840000FBE0F901F9018951F920F920FB60F9208
:1028500011240BB60F922F933F938F939F93EF9377
:10286000FF932091BE053091BF058091C0059091E6
:10287000C1052817390731F48091C9008F7D8093F5
:10288000C90014C0E091C005F091C105E258FA4FAB
:1028900020818091C0059091C10501968F73992781
:1028A0009093C1058093C0052093CE00FF91EF91D6
:1028B0009F918F913F912F910F900BBE0F900FBE64
:1028C0000F901F9018951F920F920FB60F92112420
:1028D0000BB60F922F933F938F939F93EF93FF939A
:1028E0002091360530913705809138059091390552
:1028F0002817390731F48091D1008F7D8093D10062
:1029000014C0E0913805F0913905EA50FB4F208161
:10291000809138059091390501968F73992790938E
:102920003905809338052093D600FF91EF919F9150
:102930008F913F912F910F900BBE0F900FBE0F9074
:102940001F9018951F920F920FB60F9211240BB67D
:102950000F922F933F938F939F93EF93FF93209129
:10296000AE043091AF048091B0049091B104281767
:10297000390731F4809131018F7D8093310114C08A
:10298000E091B004F091B104E259FB4F20818091B5
:10299000B0049091B10401968F7399279093B1047C
:1029A0008093B00420933601FF91EF919F918F9116
:1029B0003F912F910F900BBE0F900FBE0F901F9065
:1029C0001895CF92DF92EF92FF920F931F93CF93C0
:1029D000DF93EC016A017B014115514E61057105E0
:1029E00009F1EC89FD8981E090E008A002C0880F20
:1029F000991F0A94E2F7808360E079E08DE390E02C
:102A0000A70196010E94692389019A0101501109C9
:102A100021093109369527951795079598010115D4
:102A20001041A8F0EC89FD89108260E874E88EE11D
:102A300090E0A70196010E946923DA01C90101977C
:102A4000A109B109B695A795979587959C01E88945
:102A5000F9893083EA89FB89208319A2EE89FF89ED
:102A6000408181E090E09C010C8C02C0220F331F5A
:102A70000A94E2F7242B2083EE89FF8940819C0190
:102A80000D8C02C0220F331F0A94E2F7242B2083FF
:102A9000EE89FF8940819C010E8C02C0220F331FFA
:102AA0000A94E2F7242B2083EE89FF8920810F8C82
:102AB00002C0880F991F0A94E2F7809582238083D1
:102AC000DF91CF911F910F91FF90EF90DF90CF900A
:102AD0000895CF92DF92EF92FF92ECE4F4E013823C
:102AE000128288EEC82E83E0D82EE12CF12CC4820D
:102AF000D582E682F7826BE073E0718360838AE4BB
:102B000096E09587848786E096E09787868785ECB0
:102B100090E0918B808B84EC90E0938B828B80ECA7
:102B200090E0958B848B81EC90E0978B868B82EC88
:102B300090E0918F808F86EC90E0938F828F44E0BD
:102B4000448F33E0358F27E0268F95E0978F81E023
:102B500080A3EAE2F4E013821282C482D582E68284
:102B6000F78271836083A2ECB5E0B587A487AEE7F6
:102B7000B5E0B787A687ADECB0E0B18BA08BACEC2D
:102B8000B0E0B38BA28BA8ECB0E0B58BA48BA9EC22
:102B9000B0E0B78BA68BAAECB0E0B18FA08FAEEC03
:102BA000B0E0B38FA28F448F358F268F978F80A38D
:102BB000E8E0F4E013821282C482D582E682F782D2
:102BC00071836083AAE3B5E0B587A487A6EFB4E07C
:102BD000B787A687A5EDB0E0B18BA08BA4EDB0E0E0
:102BE000B38BA28BA0EDB0E0B58BA48BA1EDB0E0D0
:102BF000B78BA68BA2EDB0E0B18FA08FA6EDB0E0B1
:102C0000B38FA28F448F358F268F978F80A3E6EEE8
:102C1000F3E013821282C482D582E682F782718346
:102C2000608362EB74E0758764876EE674E0778793
:102C3000668765E371E0718B608B64E371E0738B91
:102C4000628B60E371E0758B648B61E371E0778B7D
:102C5000668B62E371E0718F608F66E371E0738F62
:102C6000628F448F358F268F978F80A3FF90EF90D0
:102C7000DF90CF900895009729F0BC0180E090E0AC
:102C80000C944D230895CF93DF9300D01F92CDB7BE
:102C9000DEB7611571058105910579F09B01AC01E5
:102CA00069833A834B835C830E94492329813A815B
:102CB0004B815C810E948B2303C060E070E0CB01FC
:102CC0000F900F900F900F90DF91CF910895CF92BA
:102CD000DF92EF92FF920F931F936217730784079F
:102CE000950784F489019A016B017C01C901B8013F
:102CF0006C197D098E099F090E9443166C0D7D1D7C
:102D00008E1D9F1D1F910F91FF90EF90DF90CF9030
:102D100008954F925F926F927F92AF92BF92CF923F
:102D2000DF92EF92FF920F931F93CF93DF93CDB774
:102D3000DEB729013A019B01AC0124193509460986
:102D400057098A899B89AC89BD89BC01CD016A1963
:102D50007B098C099D090E945923A8019701241918
:102D60003509460957090E948B23CA01B9016A0D2A
:102D70007B1D8C1D9D1DDF91CF911F910F91FF90A9
:102D8000EF90DF90CF90BF90AF907F906F905F906B
:102D90004F9008952F923F924F925F926F927F9241
:102DA0008F929F92AF92BF92CF92DF92EF92FF925B
:102DB0000F931F93CF93DF9300D0CDB7DEB74C01B5
:102DC0007B836A836A01590117019801241B350B23
:102DD00037FF03C0319521953109C5014A815B81D7
:102DE000841B950B97FF03C091958195910951E044
:102DF00059838217930714F019820BC09A2D8B2DDB
:102E00005801092F182F9A818B81DB82CA82C92E23
:102E1000D82E8A819B81A816B9065CF49C2D8D2D35
:102E20006801092F182F9A818B81BB82AA82A92E53
:102E3000B82E2501AA81BB814A1A5B0A38016C1899
:102E40007D0877FE03C0719461947108720157FE8A
:102E500003C0BFEFEB1AFB0AF594E794C016D10646
:102E60001CF00FEF1FEF1FC001E010E01CC0D401E9
:102E7000ED91FC91B9810084F185E02D9101BB2396
:102E8000C1F04A815B81B601C4011995E618F708C3
:102E9000F7FE04C0C00ED11EE40CF51CEA81FB81D4
:102EA0003196FB83EA834A815B81A416B506FCF662
:102EB00004C0A6016A817B81E7CF0F900F900F902D
:102EC000DF91CF911F910F91FF90EF90DF90CF9006
:102ED000BF90AF909F908F907F906F905F904F903A
:102EE0003F902F9008950895DC01ED91FC910480AE
:102EF000F581E02D19940F931F93DC01ED91FC9166
:102F0000008CF18DE02D19951F910F9108950F936D
:102F10001F93DC01ED91FC91028CF38DE02D19954E
:102F20001F910F910895EF92FF920F931F93DC0171
:102F3000ED91FC91048CF58DE02D19951F910F9169
:102F4000FF90EF9008950895AF92BF92CF92DF92D5
:102F5000EF92FF920F931F93CF93DF9300D01F92B6
:102F6000CDB7DEB75C016901DC01ED91FC91068013
:102F7000F781E02D4B835C8369837A831995D501B2
:102F8000ED91FC914B815C81C40ED51EB1E0CB1A52
:102F9000D1080088F189E02D7801860169817A8164
:102FA0009B01C5011995D501ED91FC910288F3892A
:102FB000E02DC5010F900F900F900F90DF91CF91F2
:102FC0001F910F91FF90EF90DF90CF90BF90AF9047
:102FD0001994AF92BF92CF92DF92EF92FF920F932C
:102FE0001F93CF93DF9300D01F92CDB7DEB75C0164
:102FF0006901DC01ED91FC910680F781E02D4B83A6
:103000005C8369837A831995D501ED91FC9169817F
:103010007A819B012C0D3D1D215031090088F189D9
:10302000E02D78014B815C818A01C5011995D5019C
:10303000ED91FC910288F389E02DC5010F900F906E
:103040000F900F90DF91CF911F910F91FF90EF9014
:10305000DF90CF90BF90AF9019944F925F926F9294
:103060007F928F929F92AF92BF92CF92DF92EF9218
:10307000FF920F931F93CF93DF931F921F92CDB7B1
:10308000DEB76C015A0139014801DC01ED91FC9178
:103090000680F781E02D69837A8319956981462E30
:1030A0007A81572E640C751CD601ED91FC91461463
:1030B00057046CF40484F585E02D87019401A50183
:1030C000B201C6011995BFEF4B1A5B0AEDCF02881A
:1030D000F389E02DC6010F900F90DF91CF911F91E2
:1030E0000F91FF90EF90DF90CF90BF90AF909F90A7
:1030F0008F907F906F905F904F901994EF92FF9216
:103100000F931F93DC01ED91FC9111971A960D918D
:103110001C911B9718962D913C911997048CF58D55
:10312000E02D7B0140E050E060E070E019951F91D8
:103130000F91FF90EF900895CF92DF92EF92FF9260
:103140000F931F93CF93DF9300D000D0CDB7DEB79E
:103150006C01DC01ED91FC916217730789F404178F
:1031600015072CF4942F852FA801092F182F041B65
:10317000150B98012F5F3F4F008CF18DE02D12C091
:103180004017510709F5261737072CF4962F872F7C
:10319000B901292F382F261B370B2F5F3F4F028C89
:1031A000F38DE02D8701C601199526960FB6F89488
:1031B000DEBF0FBECDBFDF91CF911F910F91FF906A
:1031C000EF90DF90CF9008950680F781E02D2D835A
:1031D0003E834B835C8369837A831995D601ED9195
:1031E000FC910088F189E02D2D813E814B815C812D
:1031F00069817A81C6011995D601ED91FC91028809
:10320000F389E02DC60126960FB6F894DEBF0FBEF7
:10321000CDBFDF91CF911F910F91FF90EF90DF9085
:10322000CF9019946F927F928F929F92AF92BF929C
:10323000CF92DF92EF92FF920F931F93CF93DF9382
:10324000EC014B015A0169013801E881F9810680DE
:10325000F781E02D1995E881F9810684F785E02D45
:1032600087019601A501B401CE011995E881F98184
:10327000A501460D571D415051090684F785E02DE3
:103280009601B401CE011995E881F9810484F58590
:10329000E02D9301A501B401CE011995E881F981D2
:1032A000C80CD91CB601615071090484F585E02D64
:1032B0009301A501CE011995E881F9810288F3896E
:1032C000E02DCE01DF91CF911F910F91FF90EF90F4
:1032D000DF90CF90BF90AF909F908F907F906F9036
:1032E00019940895FC016370658B84819581268112
:1032F0003781613039F0633029F0918780873387D7
:103300002287089531872087938782870895FC015B
:10331000138212828BE193E09183808375836483AF
:10332000578346837187608753874287158A15863E
:1033300014861786168681E0848B2FEF3FEF338B40
:10334000228B318B208B868B178A118E108E0895DD
:103350002F923F924F925F926F927F928F929F92A5
:10336000AF92BF92CF92DF92EF92FF920F931F9393
:10337000CF93DF93CDB7DEB76C970FB6F894DEBF6F
:103380000FBECDBF9C8F8B8F5B011A011F830E83F5
:103390003701C982DC0158964D915C9159974115CE
:1033A000510509F0E5C018968D919C911997681701
:1033B00079070CF0CAC11A968D919C911B9728161B
:1033C00039060CF0C2C18C2C912CFB0136E0C39E57
:1033D000E00DF11D1124FB87EA871E161F060CF075
:1033E000B4C1C40133E0880F991F3A95E1F79D8776
:1033F0008C87820D931D181619060CF0A6C15796DE
:103400008C91811103C0203B08F02F5FAB8DBC8DE8
:10341000ED91FC9111970680F781E02DCD012A8F67
:1034200019952A8DB5E02B9F90011124F501359651
:10343000FF87EE872501BB82AA82A9014A195B0991
:10344000598B488BC10108969B8B8A8BE889F98937
:10345000E40DF51DE250FD4F949198873D822C823A
:103460006101A885A0FF13C0AB8DBC8DED91FC91CF
:10347000B981B13031F40084F185E02D2E813F8196
:1034800016C00284F385E02DEE80FF801AC0EE8125
:10349000FF816E167F06F1F0AB8DBC8DED91FC9136
:1034A000B981B13051F40084F185E02D9301A6017A
:1034B000B2018B8D9C8D19950DC00284F385E02D92
:1034C0007301840194014C815D816A817B818B8DC4
:1034D0009C8D1995E885E695E8872C813D81280D1E
:1034E000391D3D832C833FEFC31AD30A4A895B8978
:1034F000C416D50609F0B5CF8A819B81880D991D28
:103500009B838A839FEF491A590AAE85BF854A1665
:103510005B0609F09BCFEE81FF816E167F0609F4F2
:10352000F2C0EB8DFC8DA081B181F981F13079F48D
:10353000B5016B5F7F4F1C96ED91FC911D97830148
:1035400028E030E0A1018B8D9C8D1995DCC06A8547
:103550007B85681979091A96ED91FC911B97730187
:103560000C851D859401A1018B8D9C8D1995CBC077
:10357000FA0134969491329765917491291BCB018D
:10358000B7E02B9F800D911D1124FA0125913491F4
:103590003B8B2A8BFC01459154915B834A83FC0150
:1035A0003296C490319654915C873296149131963C
:1035B000D4908981823058F0612E012E000C77085A
:1035C000AD2D0D2C000CBB0BB987A88704C0198644
:1035D0001886612C712CAB8DBC8DED91FC911197EF
:1035E0000680F781E02DCD011995B9818B2E912CA4
:1035F000689CC001699C900D789C900D1124FC0181
:10360000EA0DFB1DF98BE88B1C82712C612CE12FDC
:10361000110FFF0B95012E0F3F1F3B872A87AC0C24
:10362000B11CA5014E0F5F1F5F8B4E8BC1018D0D2D
:10363000911DD7FC9A95998F888F4C85641608F058
:1036400062C0862D90E048855985480F591F489DD6
:103650009001499D300D589D300D1124D901A20DC6
:10366000B31DBF87AE87AA84BB8448885988DC8095
:10367000BA85DB1AE88DF98DE80FF91FFD8BEC8B0D
:103680008D2D8A0D2E893F89A216B306B9F1877058
:1036900061F48A819B810196EA89FB89AA81BB81B9
:1036A000EA0FFB1F74909B838A8377FE20C0AB8D4B
:1036B000BC8DED91FC91B981B13061F40084F1854C
:1036C000E02D2E813F814C895D89B5018B8D9C8DCC
:1036D00019950DC00284F385E02DEE80FF808401F2
:1036E00094014E855F85B2018B8D9C8D1995770C69
:1036F000480C591CEFEFAE1ABE0AC2CF3C813C0DFC
:103700003C8363949ACFAB8DBC8DED91FC91119766
:103710000288F389E02DCD016C960FB6F894DEBFD8
:103720000FBECDBFDF91CF911F910F91FF90EF9012
:10373000DF90CF90BF90AF909F908F907F906F90D1
:103740005F904F903F902F9019946C960FB6F8941D
:10375000DEBF0FBECDBFDF91CF911F910F91FF90C4
:10376000EF90DF90CF90BF90AF909F908F907F9021
:103770006F905F904F903F902F900895AF92BF92BF
:10378000CF92EF92FF920F931F93CF93DF93EC01B1
:10379000262F888D998D009709F040C06A3059F422
:1037A0001D861C862C898E859F8538E0239F800D81
:1037B000911D112441C06D3009F4AAC08E8988235F
:1037C000C1F03C898C859D8546E0349F800D911D1C
:1037D000112448855985481759075CF41D861C86B5
:1037E0008E859F8548E0349F800D911D11249F8711
:1037F0008E87EA88FB88088919894E855F856C85E4
:103800007D85CC88CE010E94A8192C898C859D8548
:1038100036E0239F800D911D112442C06A3079F457
:103820001D861C862C89FC013696E4918E859F8529
:103830002E9F800D911D11249F878E8769C06D304A
:1038400009F466C0FC0134963491631708F460C033
:103850003196E491E61708F45BC0FC013296A5901E
:10386000B490462F50E0431B510937E0349FB0011C
:10387000359F700D1124A60EB71EF50132963491B6
:103880003196E491332311F0E1110DC0F501349626
:10389000E4912C898C859D85E29F800D911D1124DA
:1038A0009D878C8735C0F501359644915E895523F7
:1038B00011F16C89E32FF0E0E40FF11D47FDFA955B
:1038C0006E9FD0016F9FB00D11244C855D854A0F0E
:1038D0005B1FE885F985E417F5076CF41D861C86E7
:1038E000FC013696E4918E859F856E9F800D911D1B
:1038F00011249F878E87EA88FB88088919894E855D
:103900005F856C857D85CC88CE010E94A819BECFCD
:1039100081E090E0DF91CF911F910F91FF90EF90A8
:10392000CF90BF90AF900895FC017587648757874B
:1039300046870895611101C061E0FC01648B089520
:10394000FC01738B628B718B608B0895FC01668B1D
:103950000895FC01808591850895FC0182859385F9
:103960000895DC019C96ED91FC919D979081D196F4
:103970008C91892B80830895EF92FF920F931F9370
:10398000DC01ED91FC910284F385E02D7801890141
:1039900021E030E019951F910F91FF90EF9008956D
:1039A000EF92FF920F931F93DC01ED91FC91028443
:1039B000F385E02D780101E010E019951F910F913A
:1039C000FF90EF9008950F931F93CF93DF9300D054
:1039D00000D0CDB7DEB78C01DC01ED91FC91068003
:1039E000F781E02D2D833E834B835C8369837A834B
:1039F0001995D801ED91FC910084F185E02D2D8180
:103A00003E814B815C8169817A81C8011995D80119
:103A1000ED91FC910288F389E02DC80126960FB63E
:103A2000F894DEBF0FBECDBFDF91CF911F910F91F4
:103A30001994EF92FF920F931F93CF93DF9300D0CF
:103A400000D0CDB7DEB77C01DC01ED91FC910680A2
:103A5000F781E02D2D833E834B835C8369837A83DA
:103A60001995D701ED91FC910484F585E02D2D8108
:103A70003E814B815C8169817A81C7011995D701AB
:103A8000ED91FC910288F389E02DC70126960FB6CF
:103A9000F894DEBF0FBECDBFDF91CF911F910F9184
:103AA000FF90EF901994EF92FF920F931F93CF9393
:103AB000DF9300D000D0CDB7DEB77C01DC01ED9103
:103AC000FC910680F781E02D2D833E834B835C8340
:103AD00069837A831995D701ED91FC910684F78566
:103AE000E02D2D813E814B815C8169817A81C70106
:103AF0001995D701ED91FC910288F389E02DC7015A
:103B000026960FB6F894DEBF0FBECDBFDF91CF91E2
:103B10001F910F91FF90EF901994CF92DF92EF9247
:103B2000FF920F931F93CF93DF9300D000D0CDB7B8
:103B3000DEB76C01DC01ED91FC910680F781E02D90
:103B40002D833E834B835C8369837A831995D601E9
:103B5000ED91FC910284F385E02D2D813E814B8116
:103B60005C8169817A81C6011995D601ED91FC913C
:103B70000288F389E02DC60126960FB6F894DEBFC1
:103B80000FBECDBFDF91CF911F910F91FF90EF90AE
:103B9000DF90CF901994CF93DF93EC0189A187FF39
:103BA00009C084E00E94ED2281E00E94DF2280E0D3
:103BB0000E94E822ECA5FDA5908189A98095892322
:103BC0008083DF91CF910895EF92FF920F931F931F
:103BD000CF93DF931F92CDB7DEB77C01062F142F52
:103BE00040E451E060EF70E029830E94871983E48C
:103BF00093E0D70111969C938E935E960C935E97FB
:103C00005F961C935F97298190962C9390978FEFE6
:103C100091968C93919792968C93929793968C937E
:103C20009397F701128E138E148E158E602F000F4E
:103C3000770BFB01E659FD4F8491E82FF0E0EE0F82
:103C4000FF1FE653FD4F859194919D969C938E9313
:103C50009C97FB01EC5DFD4FE491D196EC93D197DD
:103C6000412F110F550BFA01E659FD4FE491F0E099
:103C7000EE0FFF1FE653FD4F85919491F70193A737
:103C800082A7FA01EC5DFD4FE491D296EC93D297B6
:103C900099961C921E929897D0961C92D0979596C2
:103CA0001C921E9294979E961C929E9797961C9299
:103CB0001E9296979F961C920F90DF91CF911F9125
:103CC0000F91FF90EF900895FC0181A187FF05C03F
:103CD0006EBD0DB407FEFDCF089528E030E090E8FA
:103CE000A4A1B5A186A5492F462319F04C91842B98
:103CF00003C04C91809584238C93A0A5B1A54C91D1
:103D000080A9809584238C93A0A5B1A54C9180A90E
:103D1000842B8C9396952150310911F70895CF93F8
:103D2000DF93EC01EAA5FBA590818AA98095892300
:103D30008083CE010E94641EEAA5FBA590818AA91A
:103D4000892B8083DF91CF910895CF93DF93EC018E
:103D5000411551056105710521F440E052E16AE722
:103D600070E04A8F5B8F6C8F7D8F61E08F8D0E943A
:103D70008B1060E08F8D0E94C71061E08E8D0E94D5
:103D80008B1061E08E8D0E94C71089A187FD16C03F
:103D900061E08AA10E948B1060E08AA10E94C71096
:103DA00061E089A10E948B1061E089A10E94C71087
:103DB0008BA187FD03C060E00E948B1089A187FD65
:103DC0000E94C92288A187FD21C061E00E948B105A
:103DD00061E088A10E94C71064E670E080E090E096
:103DE0000E94820F60E088A10E94C71064E670E024
:103DF00080E090E00E94820F61E088A10E94C710DD
:103E000068EC70E080E090E00E94820FE881F98128
:103E10000680F781E02DCE0119956FEECE010E944C
:103E20008F1E63E0CE010E94641E60E8CE010E94F6
:103E3000641E62E0CE010E94641E6FECCE010E94FF
:103E40008F1E60E0CE010E94641E61ECCE010E94D4
:103E5000641E60E3CE010E94641E6DEECE010E94DE
:103E60008F1E64E6CE010E94641E63E0CE010E94B4
:103E7000641E62E1CE010E94641E61E8CE010E94D0
:103E8000641E68EECE010E948F1E65E8CE010E947E
:103E9000641E60E0CE010E94641E68E7CE010E94AD
:103EA000641E6BECCE010E948F1E69E3CE010E945E
:103EB000641E6CE2CE010E94641E60E0CE010E948E
:103EC000641E64E3CE010E94641E62E0CE010E9483
:103ED000641E67EFCE010E948F1E60E2CE010E9439
:103EE000641E6AEECE010E948F1E60E0CE010E9429
:103EF000641E60E0CE010E94641E60ECCE010E9450
:103F00008F1E63E2CE010E94641E61ECCE010E940E
:103F10008F1E60E1CE010E94641E65ECCE010E94FE
:103F20008F1E6EE3CE010E94641E68E2CE010E94E5
:103F3000641E67ECCE010E948F1E66E8CE010E94CF
:103F4000641E66E3CE010E948F1E68E4CE010E94CB
:103F5000641E67E3CE010E948F1E89A187FF09C0FE
:103F60001EBC0DB407FEFDCF1EBC0DB407FEFDCF79
:103F700008C060E0CE010E94641E60E0CE010E9495
:103F8000641E6AE3CE010E948F1E65E5CE010E9489
:103F9000641E61EBCE010E948F1E60E0CE010E9484
:103FA000641E68E1CE010E94641E66EBCE010E9491
:103FB0008F1E68E0CE010E94641E62E8CE010E945E
:103FC000641E67E2CE010E94641E62EFCE010E9471
:103FD0008F1E60E0CE010E94641E66E2CE010E9448
:103FE0008F1E61E0CE010E94641E60EECE010E9431
:103FF0008F1E6FE0CE010E94641E61E3CE010E941D
:10400000641E6BE2CE010E94641E6CE0CE010E9431
:10401000641E6EE0CE010E94641E68E0CE010E9424
:10402000641E6EE4CE010E94641E61EFCE010E9408
:10403000641E67E3CE010E94641E67E0CE010E9409
:10404000641E60E1CE010E94641E63E0CE010E9406
:10405000641E6EE0CE010E94641E69E0CE010E94E3
:10406000641E60E0CE010E94641E61EECE010E94DB
:104070008F1E60E0CE010E94641E6EE0CE010E94A1
:10408000641E64E1CE010E94641E63E0CE010E94C2
:10409000641E61E1CE010E94641E67E0CE010E94B1
:1040A000641E61E3CE010E94641E61ECCE010E9499
:1040B000641E68E4CE010E94641E68E0CE010E9486
:1040C000641E6FE0CE010E94641E6CE0CE010E946F
:1040D000641E61E3CE010E94641E66E3CE010E946D
:1040E000641E6FE0CE010E94641E61E1CE010E9459
:1040F0008F1E68E770E080E090E00E94820F69E226
:10410000CE010E948F1E68E770E080E090E00E9480
:10411000820FE881F9810288F389E02DCE0119959B
:1041200080EF90E09987888780E491E09B878A8779
:10413000DF91CF9108951F93CF93DF93EC016370CC
:104140006D8B6230C1F0633001F1613051F080EF6E
:1041500090E09987888780E491E09B878A8718E4BC
:104160001DC080E491E09987888780EF90E09B876D
:104170008A8718E213C080EF90E09987888780E4EF
:1041800091E09B878A8718E809C080E491E09987CD
:10419000888780EF90E09B878A8718EEE881F98115
:1041A0000680F781E02DCE01199566E3CE010E94CD
:1041B0008F1E612FCE010E94641EE881F981028862
:1041C000F389E02DCE01DF91CF911F9119940F93C8
:1041D0001F93CF93DF931F92CDB7DEB78C01DC0125
:1041E000ED91FC910680F781E02D69831995698135
:1041F000611102C060E201C061E2C8010E948F1E2D
:10420000D801ED91FC910288F389E02DC8010F904F
:10421000DF91CF911F910F9119948F929F92AF923E
:10422000BF92CF92DF92EF92FF920F931F93CF93A3
:10423000DF93EC01490181E0881A9108860E971EF0
:10424000C401A0E0B0E04B01A12CB12C5401992491
:104250008824882A992AAA2ABB2A680181E0C81AD8
:10426000D108C40ED51EC601A0E0B0E06A01E12C61
:10427000F12C7601DD24CC24C82AD92AEA2AFB2A8B
:104280006AE2CE010E948F1E29A16B2D7727882715
:10429000992727FF18C06EBD0DB407FEFDCFC501DD
:1042A000AA27BB278EBD0DB407FEFDCFBB27AB2DC4
:1042B0009A2D892D8EBD0DB407FEFDCF8EBC0DB499
:1042C00007FEFDCF14C0CE010E94641EB5018827F1
:1042D0009927CE010E94641E99278B2D7A2D692D76
:1042E000CE010E94641E682DCE010E94641E6BE206
:1042F000CE010E948F1E29A16F2D7727882799272D
:1043000027FF18C06EBD0DB407FEFDCFC701AA2759
:10431000BB278EBD0DB407FEFDCFBB27AF2D9E2D55
:104320008D2D8EBD0DB407FEFDCFCEBC0DB407FEA6
:10433000FDCF14C0CE010E94641EB70188279927C3
:10434000CE010E94641E99278F2D7E2D6D2DCE01EA
:104350000E94641E6C2DCE010E94641E6CE2CE0190
:10436000DF91CF911F910F91FF90EF90DF90CF9051
:10437000BF90AF909F908F900C948F1E1F93CF9300
:10438000DF93262FFC0131A137FF09C07EBD0DB49C
:1043900007FEFDCF2EBD0DB407FEFDCF0CC0672F6D
:1043A000122FEC010E94641E612FCE01DF91CF918C
:1043B0001F910C94641EDF91CF911F910895EF928D
:1043C000FF920F931F93CF93DF9377FD23C0DC0100
:1043D0001896ED91FC9119976E177F07DCF457FD45
:1043E00019C01A96ED91FC911B974E175F0794F434
:1043F0007901EC0101E010E021E030E00E940D21A4
:10440000B701CE01DF91CF911F910F91FF90EF90F7
:104410000C94BE21DF91CF911F910F91FF90EF90EF
:104420000895EF92FF921F93CF93DF9300D01F92D6
:104430001F92CDB7DEB77C01162FFC0181A187FF4B
:1044400012C0211531054105510549F17EBD0DB45C
:1044500007FEFDCF1EBD0DB407FEFDCF2150310973
:1044600041095109EECF2115310541055105B9F03A
:10447000672FC70129833A834B835C837D830E9426
:10448000641E612FC7010E94641E29813A814B81FD
:104490005C8121503109410951097D81E4CF0F90A0
:1044A0000F900F900F900F90DF91CF911F91FF9081
:1044B000EF9008958F929F92AF92BF92CF92DF922A
:1044C000EF92FF920F931F93CF93DF935C01FB0159
:1044D000E9014701DC0118962D913C91199762176B
:1044E00073070CF049C01A968D919C911B97481741
:1044F00059070CF041C06B01CC0EDD1ED60111979F
:104500007A01E00EF11EB70161507109B7FD34C0A8
:1045100077FD32C0F7FF03C0E601E0E0F0E057FFAF
:1045200003C0870140E050E0A217B3071CF0E90187
:10453000CE1BDF0B681779071CF08C01041B150BD1
:104540009E01D8010E94B2236B017C01BF01C5010D
:104550000E940D21A7019601B401C501DF91CF9101
:104560001F910F91FF90EF90DF90CF90BF90AF9091
:104570009F908F900C941122DF91CF911F910F91FA
:10458000FF90EF90DF90CF90BF90AF909F908F9073
:10459000089561E085E30E94C71061E085E30E9411
:1045A0008B108CB580618CBD8CB580648CBD61E056
:1045B00084E30E948B1061E083E30C948B108111E3
:1045C00003C08CB5806202C08CB58F7D8CBD089510
:1045D0009CB5937F892B8CBD08959CB5282F2370A3
:1045E0009C7F922B9CBD2DB582FB992790F9822F41
:1045F0008E7F892B8DBD08958F929F92AF92BF922F
:10460000CF92DF92EF92FF92CF93DF93EC0168811C
:1046100079818A819B81611571058105910521F45C
:1046200064E279ED8BE597E02DE133EF41E050E076
:104630000E948B2349015A019B01AC01A7EAB1E416
:104640000E94D0236B017C01ACEEB4EFA501940174
:104650000E94DE23DC01CB018C0D9D1DAE1DBF1D14
:10466000B7FF03C00197A109B04888839983AA8343
:10467000BB83BC01CD019F77DF91CF91FF90EF907D
:10468000DF90CF90BF90AF909F908F9008950C9443
:10469000FC2280E092E00C94FC2260930002709374
:1046A000010280930202909303020895F8940C94FF
:1046B000E323DB018F939F930E94D023BF91AF919F
:1046C000A29F800D911DA39F900DB29F900D11246C
:1046D0000895A1E21A2EAA1BBB1BFD010DC0AA1F43
:1046E000BB1FEE1FFF1FA217B307E407F50720F05B
:1046F000A21BB30BE40BF50B661F771F881F991FD6
:104700001A9469F760957095809590959B01AC011E
:10471000BD01CF010895052E97FB1EF400940E9461
:10472000A22357FD07D00E94692307FC03D04EF453
:104730000C94A22350954095309521953F4F4F4FB3
:104740005F4F089590958095709561957F4F8F4F3D
:104750009F4F0895EE0FFF1F881F8BBF0790F691A4
:10476000E02D19940E94BA23332312F48A1B9B0B69
:104770000C94CB23A29FB001B39FC001A39F700DE7
:10478000811D1124911DB29F700D811D1124911D59
:1047900008950E94BA23B7FF0895821B930B0895D2
:1047A0000E94BA23A59F900DB49F900DA49F800DE9
:1047B000911D11240895B7FF0C94D0230E94D0239B
:0A47C000821B930B0895F894FFCFBD
:1047CA0001000000010800070005000000010002C6
:1047DA000003004F4B210053746172742047616DCE
:1047EA006500486967682053636F72657300496E94
:1047FA0020646576656C6F70656D656E74004272D3
:10480A0065616B6F757421004D6164652062790082
:10481A004161726F6E20506C616D6F6E646F6E20B5
:10482A00260055646579205269736869004C697677
:10483A0065733A200054617020746F20626567695D
:10484A006E0054617020746F20726573756D650017
:10485A00596F7520776F6E2074686520726F756E58
:10486A006421004C6574277320696E6372656173F5
:10487A0065207468650073706565642100596F75F9
:10488A0020776F6E20616C6C20726F756E64732175
:10489A000054617020746F20636F6E74696E756561
:1048AA002100206C696665206C6566742100476189
:1048BA006D65204F766572210046696E616C2053E2
:1048CA00636F72653A2000000000009812201141BF
:1048DA00126D1251128D1200000000BE1B201133FE
:1048EA00127317741793177B178717CA16A31772B1
:1048FA00197119A417E9172D187E189C1812190096
:10490A00000000BE1B2011E31CCB1DDF215A22BC74
:10491A001CD01CCA16B11C9B20E720191D531D8DE3
:08492A001D7E189C18121900F3
:00000001FF
